:020000040000FA
:060000000A128A110C280F
:10000800FE00030EF1000A08F2000A128A11EE2A15
:100018000A128A110F28F801F901FA018312031351
:10002800B401B501B601B701B801B901BA01BB0104
:10003800BC01BD01BE01BF01C001C101C2018301F4
:100048000A128A1127280A128A117B250A128A1194
:100058001030831203133F02031C33283428382836
:10006800BF01831603130C1633308312A20000302D
:10007800A3004208AA00AB012A08A4002B08A50087
:100088000A128A11B5240A128A118312031322084C
:10009800AC002C08BE003330A2000030A300420898
:1000A800AA00AB012A08F3002B08F4006430F5001D
:1000B8000030F6000A128A11BA250A128A11740849
:1000C80083120313A5007308A4000A128A11B52429
:1000D8000A128A11831203132208AC002308AD0008
:1000E8003E08AE00AF012E08F3002F08F4009C3044
:1000F800F500FF30F6000A128A11BA250A128A1191
:100108007308831203132C07B20074080318740AC7
:100118002D07B3000A30A2000030A3003308A50061
:100128003208A4000A128A11B5240A128A1183120D
:1001380003132208AA002A08BD003330A2000030A9
:10014800A3004208AA00AB012A08F3002B08F40018
:100158006430F5000030F6000A128A11BA250A1236
:100168008A11740883120313A5007308A4000A12E5
:100178008A11B5240A128A11831203132208AC00CB
:100188002308AD009C30AE002E08F3003E080A128A
:100198008A1194260A128A1183120313AF00F630CB
:1001A800B0003008F3003D080A128A1194260A129A
:1001B8008A11831203132F072C07B1003108BC00E2
:1001C8003330A2000030A3004108AA00AB012A087E
:1001D800A4002B08A5000A128A11B5240A128A1154
:1001E800831203132208AC002C08BB003330A20092
:1001F8000030A3004108AA00AB012A08F3002B082D
:10020800F4006430F5000030F6000A128A11BA25AD
:100218000A128A11740883120313A5007308A40034
:100228000A128A11B5240A128A11831203132208AA
:10023800AC002308AD003B08AE00AF012E08F30068
:100248002F08F4009C30F500FF30F6000A128A11DE
:10025800BA250A128A117308831203132C07B200F5
:1002680074080318740A2D07B3000A30A20000307E
:10027800A3003308A5003208A4000A128A11B52485
:100288000A128A11831203132208AA002A08BA0044
:100298003330A2000030A3004108AA00AB012A08AD
:1002A800F3002B08F4006430F5000030F6000A1261
:1002B8008A11BA250A128A11740883120313A50039
:1002C8007308A4000A128A11B5240A128A1183122B
:1002D80003132208AC002308AD009C30AE002E08A2
:1002E800F3003B080A128A1194260A128A11831213
:1002F8000313AF00F630B0003008F3003A080A12D2
:100308008A1194260A128A11831203132F072C07C5
:10031800B1003108B9006430A2000030A3004008E1
:10032800AA00AB012A08A4002B08A5000A128A110A
:10033800B5240A128A11831203132208AC002C0870
:10034800B8000A30A2000030A3003808AA00AB01A8
:100358002A08F3002B08F4009C30F500FF30F60063
:100368000A128A11BA250A128A1183120313400845
:100378007307A40074080318740AA5000A128A11E6
:10038800B5240A128A11831203132208AC002C0820
:10039800B7009C30AA002A08F30038080A128A110C
:1003A80094260A128A1183120313AB00F630AC00AC
:1003B8002C08F30037080A128A1194260A128A11A7
:1003C800831203132B074007AD002D08B6000A302F
:1003D8003D02031CF029F129F5290930AA002A0851
:1003E800BD000A303C02031CFA29FB29FF29093009
:1003F800AA002A08BC000A303A02031C042A052A6B
:10040800092A0930AA002A08BA000A303902031C4E
:100418000E2A0F2A132A0930AA002A08B900063022
:100428003E02031C182A192A1D2A0530AA002A0888
:10043800BE0006303B02031C222A232A272A053045
:10044800AA002A08BE0006303802031C2C2A2D2ACE
:10045800312A0530AA002A08BE00F701F70A02303F
:100468000A128A110E260A128A11831203133E08F1
:10047800303E0A128A117E260A128A11033083122C
:100488000313AA002A08F70002300A128A110E265E
:100498000A128A11831203133D08303E0A128A1188
:1004A8007E260A128A11043083120313AA002A082E
:1004B800F70002300A128A110E260A128A118312D4
:1004C80003133C08303E0A128A117E260A128A114A
:1004D800073083120313AA002A08F70002300A1211
:1004E8008A110E260A128A11831203133B08303E22
:1004F8000A128A117E260A128A11093083120313FE
:10050800AA002A08F70002300A128A110E260A12D7
:100518008A11831203133A08303E0A128A117E2682
:100528000A128A110A3083120313AA002A08F70054
:1005380002300A128A110E260A128A118312031334
:100548003908303E0A128A117E260A128A110D30A5
:1005580083120313AA002A08F70002300A128A112C
:100568000E260A128A11831203133808303E0A1223
:100578008A117E260A128A110E3083120313AA00EA
:100588002A08F70002300A128A110E260A128A1166
:10059800831203133708303E0A128A117E260A1284
:1005A8008A110F3083120313AA002A08F7000230B9
:1005B8000A128A110E260A128A11831203133608A8
:1005C800303E0A128A117E260A128A112C280A1233
:1005D8008A110C280B1DF12AF22AF92A0130F000A1
:1005E800700883120313BF070B11831203130C1F28
:1005F800FE2AFF2A1B2B7A03031D032B042B0B2B2C
:100608001E08F0007008C2001F15FA01122B1E0800
:10061800F0007008C1001F11FA01FA0A0C13273004
:10062800F000F00B152B182B831203139F148C1E4C
:100638001E2B1F2B402B85170D301A06031D252B4B
:10064800262B3B2B85132B307906031D2C2B2D2BAA
:10065800322B0130F0007008C007402B2D3079068E
:10066800031D372B382B402B0130C002402B1A08B2
:10067800F0007008F900402B0C1E432B442BC62BAE
:100688007808031D482B492B4F2B3E08303E990014
:10069800F801F80AC52B7803031D532B542B5B2B49
:1006A8002E3099000230F0007008F800C52B023097
:1006B8007806031D602B612B692B3D08303E99009D
:1006C8000330F0007008F800C52B03307806031DCE
:1006D8006E2B6F2B772B3C08303E99000430F000CE
:1006E8007008F800C52B04307806031D7C2B7D2B81
:1006F800842B2D3099000530F0007008F800C52BC8
:1007080005307806031D892B8A2B922B3B08303E37
:1007180099000630F0007008F800C52B06307806FE
:10072800031D972B982B9F2B2E3099000730F00034
:100738007008F800C52B07307806031DA42BA52BDD
:10074800AD2B3A08303E99000830F0007008F800E8
:10075800C52B08307806031DB22BB32BBB2B3908E9
:10076800303E99000930F0007008F800C52B0930B8
:100778007806031DC02BC12BC52B0D309900F8013D
:10078800C52B0C1272088A00710E8300FE0E7E0EB5
:100798000900F500831603139F131F129F1283127B
:1007A80003131F083F3980389F00C3309F051F146B
:1007B8002130F300F30BDE2B831203139F148316EF
:1007C80003130C17831203130C13292C831603131A
:1007D80005148316031708144B2C8316031385146A
:1007E8008316031788144B2C8316031305158316D9
:1007F800031708154B2C8316031385158316031747
:1008080088154B2C831603138516831603170816B1
:100818004B2C8316031309148316031788164B2CC5
:100828008316031389148316031708174B2C831692
:10083800031309158316031788174B2C8316031304
:1008480005148316031708144B2C7508F300F401DC
:100858007408003A0319312C222C7308003A031942
:10086800EA2B013A0319F12B033A0319F82B013A41
:100878000319FF2B073A0319062C013A03190D2C0B
:10088800033A0319142C013A03191B2C222C0800D3
:10089800033083120313A3002308F70001300A1260
:1008A8008A110E260A128A110A300A128A11E525BF
:1008B8000A128A11F701F70A02300A128A110E2663
:1008C8000A128A1101300A128A11E5250A128A11C0
:1008D800083083120313A3002308F70001300A121B
:1008E8008A110E260A128A110D300A128A11E5257C
:1008F8000A128A11073083120313A3002308F70092
:1009080002300A128A110E260A128A1101300A12BE
:100918008A11E5250A128A110E3083120313A300E7
:100928002308F70001300A128A110E260A128A11CA
:1009380010300A128A11E5250A128A110D30831225
:100948000313A3002308F70002300A128A110E26A7
:100958000A128A1106300A128A11E5250A128A112A
:10096800080083120313A701A31FBB2CBC2CC32CA4
:10097800A209A309A20A0319A30AA701A70AA51F86
:10098800C62CC72CD02CA409A509A40A0319A50AAA
:100998000130F7007708A706A801A9012208230457
:1009A8000319D72CD82C0F2DA601A60AE62C013046
:1009B8000310A20DA30DFF3E031DDC2C0130F70030
:1009C8007708A607A31FE92CEA2CDB2C01300310BB
:1009D800A80DA90DFF3E031DEB2C23082502031DBE
:1009E800F72C22082402031CFA2CFB2C022D2208C7
:1009F800A4022308031CA503A50228140130031030
:100A0800A30CA20CFF3E031D032D0130A602031DFB
:100A18000E2D0F2DEA2C27080319132D142D192D2F
:100A2800A809A909A80A0319A90A2908A3002808D6
:100A3800A2000800273083120313A100F430A0009D
:100A4800A00B242DA10B242D000000300A128A11BE
:100A5800A9260A128A11343083120313A100F13037
:100A6800A000A00B352DA10B352D30300A128A11AC
:100A780034260A128A110D3083120313A100FB30A9
:100A8800A000A00B452DA10B452D30300A128A116C
:100A980034260A128A11693083120313A000A00BAE
:100AA800532D562D30300A128A1134260A128A1113
:100AB80038300A128A1134260A128A1110300A12A2
:100AC8008A1134260A128A1101300A128A11342630
:100AD8000A128A1106300A128A1134260A128A1159
:100AE8000C300A128A1134260A128A110800831659
:100AF80003130F178F160F160F1403308500860186
:100B080088018901831203138501860188018901FF
:100B1800033083160317880089018B170A128A117C
:100B28001E250A128A1100300A128A11CD230A12D0
:100B38008A1101300A128A11CD230A128A118316EA
:100B4800031381128111073081040A3083120313C1
:100B580081008B160B110A128A1166260A128A1155
:100B68000A128A114C240A128A11080083120313EC
:100B7800A001A101731CC12DC22DCA2D75088312B5
:100B88000313A0070318A10A7608A1070130031070
:100B9800F50DF60DFF3E031DCB2D01300310F40CAF
:100BA800F30CFF3E031DD22D73087404031DDD2DC5
:100BB800DE2DBE2D831203132108F4002008F30054
:100BC800080083120313A200A001A101002E20082F
:100BD800220784000A128A114E260A128A110A1262
:100BE8008A117E260A128A11013083120313A00784
:100BF8000318A10A0030A1072008220784000A125E
:100C08008A114E260A128A11003A031D0C2E0D2E47
:100C1800EB2D080083120313A1002103031D152ED9
:100C2800162E222E77087F3EA0002008A200220858
:100C38000A128A1134260A128A11332E023021062A
:100C4800031D272E282E332E7708BF3EA00020082C
:100C5800A20022080A128A1134260A128A110800F0
:100C6800F60083120313091076080A128A11A926BE
:100C78000A128A118312031389141A30F500F83006
:100C8800F400F40B452EF50B452E000083120313D8
:100C98008910080006308A000408840A8207003494
:100CA80030342E343034303400343034303430344E
:100CB8000034533431340034533432340034533430
:100CC80033340034831603130713871718121815C3
:100CD800831603178715CF308316031399009A01DB
:100CE80083120313981718131816831603139816EC
:100CF8000B170800F50083120313091475080A126C
:100D08008A11A9260A128A118312031389141A3028
:100D1800F400F40B8D2E00008312031389100800D1
:100D2800F600F501761C992E9A2E9E2E7308F40073
:100D38007408F5070310F30D0310F60C7608031D6D
:100D4800A62EA72E962E75080800F30073088312A6
:060D5800031388000800EF
:04400E00D420FF3F7C
:00000001FF
